{"abi":[{"type":"function","name":"PAYMASTER_DATA_OFFSET","inputs":[],"outputs":[{"name":"","type":"uint256","internalType":"uint256"}],"stateMutability":"view"},{"type":"function","name":"PAYMASTER_POSTOP_GAS_OFFSET","inputs":[],"outputs":[{"name":"","type":"uint256","internalType":"uint256"}],"stateMutability":"view"},{"type":"function","name":"PAYMASTER_VALIDATION_GAS_OFFSET","inputs":[],"outputs":[{"name":"","type":"uint256","internalType":"uint256"}],"stateMutability":"view"},{"type":"error","name":"InvalidPaymasterSignatureLength","inputs":[{"name":"dataLength","type":"uint256","internalType":"uint256"},{"name":"pmSignatureLength","type":"uint256","internalType":"uint256"}]}],"bytecode":{"object":"0x61010a61004d600b8282823980515f1a6073146041577f4e487b71000000000000000000000000000000000000000000000000000000005f525f60045260245ffd5b305f52607381538281f3fe73000000000000000000000000000000000000000030146080604052600436106046575f3560e01c806325093e1b14604a578063b29a8ff4146064578063ede3150214607e575b5f5ffd5b60506098565b604051605b919060bd565b60405180910390f35b606a609d565b6040516075919060bd565b60405180910390f35b608460a2565b604051608f919060bd565b60405180910390f35b602481565b601481565b603481565b5f819050919050565b60b78160a7565b82525050565b5f60208201905060ce5f83018460b0565b9291505056fea264697066735822122040c725f0f8bf8fa6bc97e541ab01c3b98d5ec9c492b7f7df1e3c3cfc4922cd0c64736f6c63430008210033","linkReferences":{}},"methodIdentifiers":{"PAYMASTER_DATA_OFFSET()":"ede31502","PAYMASTER_POSTOP_GAS_OFFSET()":"25093e1b","PAYMASTER_VALIDATION_GAS_OFFSET()":"b29a8ff4"},"id":1}