{"abi":[{"type":"constructor","inputs":[{"name":"entryPoint","type":"address","internalType":"address"}],"stateMutability":"nonpayable"},{"type":"receive","stateMutability":"payable"},{"type":"function","name":"execute","inputs":[{"name":"dest","type":"address","internalType":"address"},{"name":"value","type":"uint256","internalType":"uint256"},{"name":"functionData","type":"bytes","internalType":"bytes"}],"outputs":[],"stateMutability":"nonpayable"},{"type":"function","name":"getEntryPoint","inputs":[],"outputs":[{"name":"","type":"address","internalType":"address"}],"stateMutability":"view"},{"type":"function","name":"owner","inputs":[],"outputs":[{"name":"","type":"address","internalType":"address"}],"stateMutability":"view"},{"type":"function","name":"renounceOwnership","inputs":[],"outputs":[],"stateMutability":"nonpayable"},{"type":"function","name":"transferOwnership","inputs":[{"name":"newOwner","type":"address","internalType":"address"}],"outputs":[],"stateMutability":"nonpayable"},{"type":"function","name":"validateUserOp","inputs":[{"name":"userOp","type":"tuple","internalType":"struct PackedUserOperation","components":[{"name":"sender","type":"address","internalType":"address"},{"name":"nonce","type":"uint256","internalType":"uint256"},{"name":"initCode","type":"bytes","internalType":"bytes"},{"name":"callData","type":"bytes","internalType":"bytes"},{"name":"accountGasLimits","type":"bytes32","internalType":"bytes32"},{"name":"preVerificationGas","type":"uint256","internalType":"uint256"},{"name":"gasFees","type":"bytes32","internalType":"bytes32"},{"name":"paymasterAndData","type":"bytes","internalType":"bytes"},{"name":"signature","type":"bytes","internalType":"bytes"}]},{"name":"userOpHash","type":"bytes32","internalType":"bytes32"},{"name":"missingAccountFunds","type":"uint256","internalType":"uint256"}],"outputs":[{"name":"validationData","type":"uint256","internalType":"uint256"}],"stateMutability":"nonpayable"},{"type":"event","name":"OwnershipTransferred","inputs":[{"name":"previousOwner","type":"address","indexed":true,"internalType":"address"},{"name":"newOwner","type":"address","indexed":true,"internalType":"address"}],"anonymous":false},{"type":"error","name":"ECDSAInvalidSignature","inputs":[]},{"type":"error","name":"ECDSAInvalidSignatureLength","inputs":[{"name":"length","type":"uint256","internalType":"uint256"}]},{"type":"error","name":"ECDSAInvalidSignatureS","inputs":[{"name":"s","type":"bytes32","internalType":"bytes32"}]},{"type":"error","name":"MinimalAccount__CallFailed","inputs":[{"name":"","type":"bytes","internalType":"bytes"}]},{"type":"error","name":"MinimalAccount__NotFromEntryPoint","inputs":[]},{"type":"error","name":"MinimalAccount__NotFromEntryPointOrOwner","inputs":[]},{"type":"error","name":"MinimalAccount__PayPreFundFailed","inputs":[]},{"type":"error","name":"OwnableInvalidOwner","inputs":[{"name":"owner","type":"address","internalType":"address"}]},{"type":"error","name":"OwnableUnauthorizedAccount","inputs":[{"name":"account","type":"address","internalType":"address"}]}],"bytecode":{"object":"0x60a060405234801561000f575f5ffd5b506040516111cd3803806111cd8339818101604052810190610031919061020b565b335f73ffffffffffffffffffffffffffffffffffffffff168173ffffffffffffffffffffffffffffffffffffffff16036100a2575f6040517f1e4fbdf70000000000000000000000000000000000000000000000000000000081526004016100999190610245565b60405180910390fd5b6100b1816100ec60201b60201c565b508073ffffffffffffffffffffffffffffffffffffffff1660808173ffffffffffffffffffffffffffffffffffffffff16815250505061025e565b5f5f5f9054906101000a900473ffffffffffffffffffffffffffffffffffffffff169050815f5f6101000a81548173ffffffffffffffffffffffffffffffffffffffff021916908373ffffffffffffffffffffffffffffffffffffffff1602179055508173ffffffffffffffffffffffffffffffffffffffff168173ffffffffffffffffffffffffffffffffffffffff167f8be0079c531659141344cd1fd0a4f28419497f9722a3daafe3b4186f6b6457e060405160405180910390a35050565b5f5ffd5b5f73ffffffffffffffffffffffffffffffffffffffff82169050919050565b5f6101da826101b1565b9050919050565b6101ea816101d0565b81146101f4575f5ffd5b50565b5f81519050610205816101e1565b92915050565b5f602082840312156102205761021f6101ad565b5b5f61022d848285016101f7565b91505092915050565b61023f816101d0565b82525050565b5f6020820190506102585f830184610236565b92915050565b608051610f496102845f395f818161015c015281816101fe015261025e0152610f495ff3fe608060405260043610610058575f3560e01c806319822f7c1461006357806344ab613f1461009f578063715018a6146100c95780638da5cb5b146100df578063b61d27f614610109578063f2fde38b146101315761005f565b3661005f57005b5f5ffd5b34801561006e575f5ffd5b5061008960048036038101906100849190610ac4565b610159565b6040516100969190610b3f565b60405180910390f35b3480156100aa575f5ffd5b506100b36101fb565b6040516100c09190610b97565b60405180910390f35b3480156100d4575f5ffd5b506100dd610222565b005b3480156100ea575f5ffd5b506100f3610235565b6040516101009190610b97565b60405180910390f35b348015610114575f5ffd5b5061012f600480360381019061012a9190610c3b565b61025c565b005b34801561013c575f5ffd5b5061015760048036038101906101529190610cac565b6103da565b005b5f7f000000000000000000000000000000000000000000000000000000000000000073ffffffffffffffffffffffffffffffffffffffff163373ffffffffffffffffffffffffffffffffffffffff16146101df576040517f298aa82c00000000000000000000000000000000000000000000000000000000815260040160405180910390fd5b6101e9848461045e565b90506101f48261051b565b9392505050565b5f7f0000000000000000000000000000000000000000000000000000000000000000905090565b61022a6105e9565b6102335f610670565b565b5f5f5f9054906101000a900473ffffffffffffffffffffffffffffffffffffffff16905090565b7f000000000000000000000000000000000000000000000000000000000000000073ffffffffffffffffffffffffffffffffffffffff163373ffffffffffffffffffffffffffffffffffffffff16141580156102eb57506102bb610235565b73ffffffffffffffffffffffffffffffffffffffff163373ffffffffffffffffffffffffffffffffffffffff1614155b15610322576040517f50e2c2e800000000000000000000000000000000000000000000000000000000815260040160405180910390fd5b5f5f8573ffffffffffffffffffffffffffffffffffffffff1685858560405161034c929190610d13565b5f6040518083038185875af1925050503d805f8114610386576040519150601f19603f3d011682016040523d82523d5f602084013e61038b565b606091505b5091509150816103d257806040517f38fe21500000000000000000000000000000000000000000000000000000000081526004016103c99190610d9b565b60405180910390fd5b505050505050565b6103e26105e9565b5f73ffffffffffffffffffffffffffffffffffffffff168173ffffffffffffffffffffffffffffffffffffffff1603610452575f6040517f1e4fbdf70000000000000000000000000000000000000000000000000000000081526004016104499190610b97565b60405180910390fd5b61045b81610670565b50565b5f5f61046983610731565b90505f6104c882868061010001906104819190610dc7565b8080601f0160208091040260200160405190810160405280939291908181526020018383808284375f81840152601f19601f82011690508083019250505050505050610764565b90506104d2610235565b73ffffffffffffffffffffffffffffffffffffffff168173ffffffffffffffffffffffffffffffffffffffff161461050f57600192505050610515565b5f925050505b92915050565b5f81146105e6575f3373ffffffffffffffffffffffffffffffffffffffff16827fffffffffffffffffffffffffffffffffffffffffffffffffffffffffffffffff9060405161056990610e4c565b5f60405180830381858888f193505050503d805f81146105a4576040519150601f19603f3d011682016040523d82523d5f602084013e6105a9565b606091505b50509050806105e4576040517f4c2c146c00000000000000000000000000000000000000000000000000000000815260040160405180910390fd5b505b50565b6105f161078e565b73ffffffffffffffffffffffffffffffffffffffff1661060f610235565b73ffffffffffffffffffffffffffffffffffffffff161461066e5761063261078e565b6040517f118cdaa70000000000000000000000000000000000000000000000000000000081526004016106659190610b97565b60405180910390fd5b565b5f5f5f9054906101000a900473ffffffffffffffffffffffffffffffffffffffff169050815f5f6101000a81548173ffffffffffffffffffffffffffffffffffffffff021916908373ffffffffffffffffffffffffffffffffffffffff1602179055508173ffffffffffffffffffffffffffffffffffffffff168173ffffffffffffffffffffffffffffffffffffffff167f8be0079c531659141344cd1fd0a4f28419497f9722a3daafe3b4186f6b6457e060405160405180910390a35050565b5f7f19457468657265756d205369676e6564204d6573736167653a0a3332000000005f5281601c52603c5f209050919050565b5f5f5f5f6107728686610795565b92509250925061078282826107ea565b82935050505092915050565b5f33905090565b5f5f5f60418451036107d5575f5f5f602087015192506040870151915060608701515f1a90506107c78882858561094c565b9550955095505050506107e3565b5f600285515f1b9250925092505b9250925092565b5f60038111156107fd576107fc610e60565b5b8260038111156108105761080f610e60565b5b0315610948576001600381111561082a57610829610e60565b5b82600381111561083d5761083c610e60565b5b03610874576040517ff645eedf00000000000000000000000000000000000000000000000000000000815260040160405180910390fd5b6002600381111561088857610887610e60565b5b82600381111561089b5761089a610e60565b5b036108df57805f1c6040517ffce698f70000000000000000000000000000000000000000000000000000000081526004016108d69190610b3f565b60405180910390fd5b6003808111156108f2576108f1610e60565b5b82600381111561090557610904610e60565b5b0361094757806040517fd78bce0c00000000000000000000000000000000000000000000000000000000815260040161093e9190610e9c565b60405180910390fd5b5b5050565b5f5f5f7f7fffffffffffffffffffffffffffffff5d576e7357a4501ddfe92f46681b20a0845f1c1115610988575f600385925092509250610a29565b5f6001888888886040515f81526020016040526040516109ab9493929190610ed0565b6020604051602081039080840390855afa1580156109cb573d5f5f3e3d5ffd5b5050506020604051035190505f73ffffffffffffffffffffffffffffffffffffffff168173ffffffffffffffffffffffffffffffffffffffff1603610a1c575f60015f5f1b93509350935050610a29565b805f5f5f1b935093509350505b9450945094915050565b5f5ffd5b5f5ffd5b5f5ffd5b5f6101208284031215610a5557610a54610a3b565b5b81905092915050565b5f819050919050565b610a7081610a5e565b8114610a7a575f5ffd5b50565b5f81359050610a8b81610a67565b92915050565b5f819050919050565b610aa381610a91565b8114610aad575f5ffd5b50565b5f81359050610abe81610a9a565b92915050565b5f5f5f60608486031215610adb57610ada610a33565b5b5f84013567ffffffffffffffff811115610af857610af7610a37565b5b610b0486828701610a3f565b9350506020610b1586828701610a7d565b9250506040610b2686828701610ab0565b9150509250925092565b610b3981610a91565b82525050565b5f602082019050610b525f830184610b30565b92915050565b5f73ffffffffffffffffffffffffffffffffffffffff82169050919050565b5f610b8182610b58565b9050919050565b610b9181610b77565b82525050565b5f602082019050610baa5f830184610b88565b92915050565b610bb981610b77565b8114610bc3575f5ffd5b50565b5f81359050610bd481610bb0565b92915050565b5f5ffd5b5f5ffd5b5f5ffd5b5f5f83601f840112610bfb57610bfa610bda565b5b8235905067ffffffffffffffff811115610c1857610c17610bde565b5b602083019150836001820283011115610c3457610c33610be2565b5b9250929050565b5f5f5f5f60608587031215610c5357610c52610a33565b5b5f610c6087828801610bc6565b9450506020610c7187828801610ab0565b935050604085013567ffffffffffffffff811115610c9257610c91610a37565b5b610c9e87828801610be6565b925092505092959194509250565b5f60208284031215610cc157610cc0610a33565b5b5f610cce84828501610bc6565b91505092915050565b5f81905092915050565b828183375f83830152505050565b5f610cfa8385610cd7565b9350610d07838584610ce1565b82840190509392505050565b5f610d1f828486610cef565b91508190509392505050565b5f81519050919050565b5f82825260208201905092915050565b8281835e5f83830152505050565b5f601f19601f8301169050919050565b5f610d6d82610d2b565b610d778185610d35565b9350610d87818560208601610d45565b610d9081610d53565b840191505092915050565b5f6020820190508181035f830152610db38184610d63565b905092915050565b5f5ffd5b5f5ffd5b5f5ffd5b5f5f83356001602003843603038112610de357610de2610dbb565b5b80840192508235915067ffffffffffffffff821115610e0557610e04610dbf565b5b602083019250600182023603831315610e2157610e20610dc3565b5b509250929050565b50565b5f610e375f83610cd7565b9150610e4282610e29565b5f82019050919050565b5f610e5682610e2c565b9150819050919050565b7f4e487b71000000000000000000000000000000000000000000000000000000005f52602160045260245ffd5b610e9681610a5e565b82525050565b5f602082019050610eaf5f830184610e8d565b92915050565b5f60ff82169050919050565b610eca81610eb5565b82525050565b5f608082019050610ee35f830187610e8d565b610ef06020830186610ec1565b610efd6040830185610e8d565b610f0a6060830184610e8d565b9594505050505056fea2646970667358221220d134398638198ce1f3ebf08075b06519ddc0cae2dfd945937eb58a63cce0f38c64736f6c63430008210033","linkReferences":{}},"methodIdentifiers":{"execute(address,uint256,bytes)":"b61d27f6","getEntryPoint()":"44ab613f","owner()":"8da5cb5b","renounceOwnership()":"715018a6","transferOwnership(address)":"f2fde38b","validateUserOp((address,uint256,bytes,bytes,bytes32,uint256,bytes32,bytes,bytes),bytes32,uint256)":"19822f7c"},"id":16}